{
  "_format": "hh-sol-artifact-1",
  "contractName": "LineControl",
  "sourceName": "contracts/LineControl.sol",
  "abi": [
    {
      "inputs": [],
      "stateMutability": "nonpayable",
      "type": "constructor"
    },
    {
      "anonymous": false,
      "inputs": [
        {
          "indexed": false,
          "internalType": "uint256",
          "name": "currentStudentCount",
          "type": "uint256"
        }
      ],
      "name": "StudentsComing",
      "type": "event"
    },
    {
      "anonymous": false,
      "inputs": [
        {
          "indexed": false,
          "internalType": "string",
          "name": "message",
          "type": "string"
        }
      ],
      "name": "TooSmall",
      "type": "event"
    },
    {
      "inputs": [
        {
          "internalType": "uint256",
          "name": "",
          "type": "uint256"
        }
      ],
      "name": "currentStudents",
      "outputs": [
        {
          "internalType": "string",
          "name": "",
          "type": "string"
        }
      ],
      "stateMutability": "view",
      "type": "function"
    },
    {
      "inputs": [
        {
          "internalType": "string",
          "name": "student",
          "type": "string"
        }
      ],
      "name": "finalize",
      "outputs": [],
      "stateMutability": "nonpayable",
      "type": "function"
    },
    {
      "inputs": [
        {
          "internalType": "string[]",
          "name": "_studentIds",
          "type": "string[]"
        }
      ],
      "name": "sendStudents",
      "outputs": [],
      "stateMutability": "nonpayable",
      "type": "function"
    }
  ],
  "bytecode": "0x6080604052348015600f57600080fd5b50610e4a8061001f6000396000f3fe608060405234801561001057600080fd5b50600436106100415760003560e01c80634d40db3c14610046578063608042691461006257806370b581ad14610092575b600080fd5b610060600480360381019061005b91906106e3565b6100ae565b005b61007c60048036038101906100779190610762565b610156565b604051610089919061080e565b60405180910390f35b6100ac60048036038101906100a79190610830565b610202565b005b60005b81518110156101165760008282815181106100cf576100ce610879565b5b60200260200101519080600181540180825580915050600190039060005260206000200160009091909190915090816101089190610ab4565b5080806001019150506100b1565b507fadab2a749ca86b3da66efa1f1a60ca2ffad8340338d83ff8003d311be1bf765560008054905060405161014b9190610b95565b60405180910390a150565b6000818154811061016657600080fd5b906000526020600020016000915090508054610181906108d7565b80601f01602080910402602001604051908101604052809291908181526020018280546101ad906108d7565b80156101fa5780601f106101cf576101008083540402835291602001916101fa565b820191906000526020600020905b8154815290600101906020018083116101dd57829003601f168201915b505050505081565b6002600080549050101561024a577f21684ce980c67f8e78adb9520ca3bb9a36a7f654279bf75df36e59e34fab530760405161023d90610bfc565b60405180910390a16103df565b60005b6000805490508110156103dd57600061030c6000838154811061027357610272610879565b5b906000526020600020018054610288906108d7565b80601f01602080910402602001604051908101604052809291908181526020018280546102b4906108d7565b80156103015780601f106102d657610100808354040283529160200191610301565b820191906000526020600020905b8154815290600101906020018083116102e457829003601f168201915b5050505050846103e2565b905060011515811515036103cf576000828154811061032e5761032d610879565b5b9060005260206000200160006103449190610446565b600060016000805490506103589190610c4b565b8154811061036957610368610879565b5b906000526020600020016000838154811061038757610386610879565b5b90600052602060002001908161039d9190610caa565b5060008054806103b0576103af610d92565b5b6001900381819060005260206000200160006103cc9190610446565b90555b50808060010191505061024d565b505b50565b600080836040516020016103f69190610dfd565b6040516020818303038152906040528051906020012090506000836040516020016104219190610dfd565b6040516020818303038152906040528051906020012090508082149250505092915050565b508054610452906108d7565b6000825580601f106104645750610483565b601f0160209004906000526020600020908101906104829190610486565b5b50565b5b8082111561049f576000816000905550600101610487565b5090565b6000604051905090565b600080fd5b600080fd5b600080fd5b6000601f19601f8301169050919050565b7f4e487b7100000000000000000000000000000000000000000000000000000000600052604160045260246000fd5b610505826104bc565b810181811067ffffffffffffffff82111715610524576105236104cd565b5b80604052505050565b60006105376104a3565b905061054382826104fc565b919050565b600067ffffffffffffffff821115610563576105626104cd565b5b602082029050602081019050919050565b600080fd5b600080fd5b600067ffffffffffffffff821115610599576105986104cd565b5b6105a2826104bc565b9050602081019050919050565b82818337600083830152505050565b60006105d16105cc8461057e565b61052d565b9050828152602081018484840111156105ed576105ec610579565b5b6105f88482856105af565b509392505050565b600082601f830112610615576106146104b7565b5b81356106258482602086016105be565b91505092915050565b600061064161063c84610548565b61052d565b9050808382526020820190506020840283018581111561066457610663610574565b5b835b818110156106ab57803567ffffffffffffffff811115610689576106886104b7565b5b8086016106968982610600565b85526020850194505050602081019050610666565b5050509392505050565b600082601f8301126106ca576106c96104b7565b5b81356106da84826020860161062e565b91505092915050565b6000602082840312156106f9576106f86104ad565b5b600082013567ffffffffffffffff811115610717576107166104b2565b5b610723848285016106b5565b91505092915050565b6000819050919050565b61073f8161072c565b811461074a57600080fd5b50565b60008135905061075c81610736565b92915050565b600060208284031215610778576107776104ad565b5b60006107868482850161074d565b91505092915050565b600081519050919050565b600082825260208201905092915050565b60005b838110156107c95780820151818401526020810190506107ae565b60008484015250505050565b60006107e08261078f565b6107ea818561079a565b93506107fa8185602086016107ab565b610803816104bc565b840191505092915050565b6000602082019050818103600083015261082881846107d5565b905092915050565b600060208284031215610846576108456104ad565b5b600082013567ffffffffffffffff811115610864576108636104b2565b5b61087084828501610600565b91505092915050565b7f4e487b7100000000000000000000000000000000000000000000000000000000600052603260045260246000fd5b7f4e487b7100000000000000000000000000000000000000000000000000000000600052602260045260246000fd5b600060028204905060018216806108ef57607f821691505b602082108103610902576109016108a8565b5b50919050565b60008190508160005260206000209050919050565b60006020601f8301049050919050565b600082821b905092915050565b60006008830261096a7fffffffffffffffffffffffffffffffffffffffffffffffffffffffffffffffff8261092d565b610974868361092d565b95508019841693508086168417925050509392505050565b6000819050919050565b60006109b16109ac6109a78461072c565b61098c565b61072c565b9050919050565b6000819050919050565b6109cb83610996565b6109df6109d7826109b8565b84845461093a565b825550505050565b600090565b6109f46109e7565b6109ff8184846109c2565b505050565b5b81811015610a2357610a186000826109ec565b600181019050610a05565b5050565b601f821115610a6857610a3981610908565b610a428461091d565b81016020851015610a51578190505b610a65610a5d8561091d565b830182610a04565b50505b505050565b600082821c905092915050565b6000610a8b60001984600802610a6d565b1980831691505092915050565b6000610aa48383610a7a565b9150826002028217905092915050565b610abd8261078f565b67ffffffffffffffff811115610ad657610ad56104cd565b5b610ae082546108d7565b610aeb828285610a27565b600060209050601f831160018114610b1e5760008415610b0c578287015190505b610b168582610a98565b865550610b7e565b601f198416610b2c86610908565b60005b82811015610b5457848901518255600182019150602085019450602081019050610b2f565b86831015610b715784890151610b6d601f891682610a7a565b8355505b6001600288020188555050505b505050505050565b610b8f8161072c565b82525050565b6000602082019050610baa6000830184610b86565b92915050565b7f4e6f7420656e6f7567682073747564656e747300000000000000000000000000600082015250565b6000610be660138361079a565b9150610bf182610bb0565b602082019050919050565b60006020820190508181036000830152610c1581610bd9565b9050919050565b7f4e487b7100000000000000000000000000000000000000000000000000000000600052601160045260246000fd5b6000610c568261072c565b9150610c618361072c565b9250828203905081811115610c7957610c78610c1c565b5b92915050565b600081549050610c8e816108d7565b9050919050565b60008190508160005260206000209050919050565b818103610cb8575050610d90565b610cc182610c7f565b67ffffffffffffffff811115610cda57610cd96104cd565b5b610ce482546108d7565b610cef828285610a27565b6000601f831160018114610d1e5760008415610d0c578287015490505b610d168582610a98565b865550610d89565b601f198416610d2c87610c95565b9650610d3786610908565b60005b82811015610d5f57848901548255600182019150600185019450602081019050610d3a565b86831015610d7c5784890154610d78601f891682610a7a565b8355505b6001600288020188555050505b5050505050505b565b7f4e487b7100000000000000000000000000000000000000000000000000000000600052603160045260246000fd5b600081905092915050565b6000610dd78261078f565b610de18185610dc1565b9350610df18185602086016107ab565b80840191505092915050565b6000610e098284610dcc565b91508190509291505056fea26469706673582212203895645374589ef2cda2237162bc6657e50a02923bbfbc2e8e0f680e0e4d918764736f6c634300081c0033",
  "linkReferences": {},
  "deployedLinkReferences": {}
}